:020000040800F2
:10000000005000209D0B0008110B0008190B000880
:10001000210B0008290B0008310B0008000000002C
:10002000000000000000000000000000390B000884
:10003000450B000800000000510B00085D0B000894
:10004000E50B0008E50B0008E50B0008E50B0008D0
:10005000E50B0008E50B0008E50B0008E50B0008C0
:10006000E50B0008E50B0008E50B0008E50B0008B0
:10007000E50B0008E50B0008E50B0008E50B0008A0
:10008000E50B0008E50B0008E50B0008E50B000890
:10009000E50B0008E50B0008E50B0008E50B000880
:1000A000E50B0008E50B0008E50B0008E50B000870
:1000B000690B0008E50B0008E50B0008E50B0008DC
:1000C000E50B0008E50B0008E50B0008E50B000850
:1000D000E50B0008E50B00087D0B0008E50B0008A8
:1000E000E50B0008E50B0008E50B00080000000028
:1000F0000000000000000000000000000000000000
:0C01000000000000000000005FF808F1A3
:10010C0010B5054C237833B9044B13B10448AFF345
:10011C0000800123237010BD0C00002000000000A3
:10012C001440000808B5034B1BB103490348AFF357
:10013C00008008BD000000001000002014400008E2
:10014C0080B586B002AF0346FB71FB7923F00F0339
:10015C00FB73FB791B01BB73FB7B43F00C03DBB222
:10016C003B72FB7B43F00803DBB27B72BB7B43F03F
:10017C000C03DBB2BB72BB7B43F00803DBB2FB723C
:10018C0007F108026423009304234E21034801F075
:10019C0063FA00BF1037BD4680BD00BF3800002099
:1001AC0080B586B002AF0346FB71FB7923F00F03D9
:1001BC00FB73FB791B01BB73FB7B43F00D03DBB2C1
:1001CC003B72FB7B43F00903DBB27B72BB7B43F0DE
:1001DC000D03DBB2BB72BB7B43F00903DBB2FB72DA
:1001EC0007F108026423009304234E21034801F015
:1001FC0033FA00BF1037BD4680BD00BF3800002069
:10020C0080B582B000AF8020FFF79AFF00237B609F
:10021C0005E02020FFF7C4FF7B6801337B607B681F
:10022C00452BF6DD00BF00BF0837BD4680BD80B54D
:10023C0082B000AF786039607B68002B03D07B689C
:10024C00012B05D009E03B6843F080033B6004E0E0
:10025C003B6843F0C0033B6000BF3B68DBB2184611
:10026C00FFF76EFF00BF0837BD4680BD80B500AFFD
:10027C00322000F015FD3020FFF762FF052000F062
:10028C000FFD3020FFF75CFF012000F009FD30204E
:10029C00FFF756FF0A2000F003FD2020FFF750FF68
:1002AC000A2000F0FDFC2820FFF74AFF012000F097
:1002BC00F7FC0820FFF744FF012000F0F1FC0120BF
:1002CC00FFF73EFF012000F0EBFC012000F0E8FC02
:1002DC000620FFF735FF012000F0E2FC0C20FFF7B1
:1002EC002FFF00BF80BD80B582B000AF786006E004
:1002FC007B685A1C7A601B781846FFF751FF7B68A5
:10030C001B78002BF4D100BF00BF0837BD4680BD61
:10031C0080B485B000AFF860B9601346FB80BB6851
:10032C00002B04D1FB681B68FA885A6313E0BB6886
:10033C00042B04D1FB681A68FB8893630BE0BB6841
:10034C00082B04D1FB681A68FB88D36303E0FB68B5
:10035C001A68FB88136400BF1437BD4680BC704715
:10036C0080B582B000AF7860FFF74AFF0D223249AA
:10037C00786803F013FE0346002B19D100210020EE
:10038C00FFF755FF2D48FFF7AEFF00210120FFF7C7
:10039C004EFF7868FFF7A7FF01224FF40051284861
:1003AC0000F0FDFF282204212648FFF7B1FF2EE0C4
:1003BC000D222549786803F0F1FD0346002B19D175
:1003CC0000210020FFF733FF2048FFF78CFF0021AE
:1003DC000120FFF72CFF7868FFF785FF01224FF40F
:1003EC000051174800F0DBFF282200211548FFF7C9
:1003FC008FFF0CE000210020FFF719FF1448FFF7D6
:10040C0072FF00224FF400510D4800F0C8FF4FF46A
:10041C007A6000F045FC3C2200210A48FFF778FF87
:10042C003C2204210748FFF773FFFFF7E9FE00BFEA
:10043C000837BD4680BD00BF2C4000083C4000087A
:10044C00001001408C0000204C4000085C4000086B
:10045C006C40000880B500AF00F0C0FB00F080F8E5
:10046C0000F09EF900F0C2F800F070F900F0ECF822
:10047C00FFF7FCFE00210020FFF7D9FE2E48FFF706
:10048C0032FF00210120FFF7D2FE2C48FFF72BFF93
:10049C0000212B4802F0F0F80421294802F0ECF876
:1004AC0001224FF40051274800F079FF4FF400412E
:1004BC00254800F05DFF0346002BF1D14FF4167078
:1004CC0000F0EEFB00224FF400511E4800F067FFD5
:1004DC00FFF796FE00210020FFF7A9FE1B48FFF74F
:1004EC0002FF00210120FFF7A2FE1948FFF7FBFED7
:1004FC004FF4FA630D221749174802F075FF0346B3
:10050C00002B03D11348FFF72BFFC9E7FFF778FE49
:10051C0000210020FFF78BFE1048FFF7E4FE0022BD
:10052C004FF40051074800F03AFF4FF47A6000F0A6
:10053C00B7FBFFF765FEB3E77C4000088840000876
:10054C008C00002000100140000C0140904000087D
:10055C00A040000828000020D4000020B040000873
:10056C0080B590B000AF07F118032822002118467F
:10057C0003F00CFD3B1D00221A605A609A60DA6091
:10058C001A610123BB614FF48033FB6100233B6292
:10059C000123BB6202237B634FF48033BB634FF4B4
:1005AC00E013FB6307F11803184601F0ADFB03469B
:1005BC00002B01D000F05AF90F237B600223BB60A3
:1005CC000023FB604FF480633B6100237B613B1D88
:1005DC000221184601F01AFE0346002B01D000F050
:1005EC0045F900BF4037BD4680BD000080B500AF67
:1005FC00124B134A1A60114B124A5A600F4B0022CD
:10060C009A600E4B0022DA600C4B4FF480421A6158
:10061C000A4B00225A61094B00229A61074B0022B7
:10062C00DA61064B00221A62044800F0D1FE034640
:10063C00002B01D000F01AF900BF80BD380000205B
:10064C0000540040A086010080B58EB000AF07F1C9
:10065C00280300221A605A609A60DA6007F12003BE
:10066C0000221A605A603B1D00221A605A609A6080
:10067C00DA601A615A619A61334B4FF080421A600A
:10068C00314B40F28F625A602F4B00229A602E4BF6
:10069C0040F2E732DA602C4B00221A612A4B00221E
:1006AC009A61294801F040FF0346002B01D000F06D
:1006BC00DDF84FF48053BB6207F12803194622483A
:1006CC0002F02EFA0346002B01D000F0CFF81E48A2
:1006DC0001F079FF0346002B01D000F0C7F800238E
:1006EC003B6200237B6207F120031946164802F097
:1006FC00BBFD0346002B01D000F0B8F860237B60F3
:10070C000023BB600023FB6000237B613B1D0022A8
:10071C0019460D4802F042F90346002B01D000F0B7
:10072C00A5F83B1D04221946074802F037F9034689
:10073C00002B01D000F09AF8034800F031F900BF0B
:10074C003837BD4680BD00BF8C00002080B500AF9F
:10075C00114B124A1A60104B4FF416525A600E4B42
:10076C0000229A600C4B0022DA600B4B00221A61BB
:10077C00094B0C225A61084B00229A61064B00224D
:10078C00DA61054802F0E0FD0346002B01D000F0D1
:10079C006DF800BF80BD00BFD400002000440040B5
:1007AC0080B588B000AF07F1100300221A605A60C0
:1007BC009A60DA602A4B9B69294A43F010039361D3
:1007CC00274B9B6903F01003FB60FB68244B9B6970
:1007DC00234A43F020039361214B9B6903F02003D0
:1007EC00BB60BB681E4B9B691D4A43F004039361BD
:1007FC001B4B9B6903F004037B607B68184B9B6964
:10080C00174A43F008039361154B9B6903F00803E7
:10081C003B603B6800224FF40051124800F0BFFDD2
:10082C004FF400533B6101237B610023BB61022326
:10083C00FB6107F1100319460A4800F015FC4FF450
:10084C0000433B6100237B610023BB6107F1100374
:10085C001946054800F008FC00BF2037BD4680BD96
:10086C000010024000100140000C014080B400AFA9
:10087C0072B600BF00BFFDE780B485B000AF154B6A
:10088C009B69144A43F001039361124B9B6903F07B
:10089C000103BB60BB680F4BDB690E4A43F080530E
:1008AC00D3610C4BDB6903F080537B607B680A4B94
:1008BC005B68FB60FB6823F0E063FB60FB6843F064
:1008CC000073FB60044AFB68536000BF1437BD46DD
:1008DC0080BC7047001002400000014080B588B019
:1008EC0000AF786007F1100300221A605A609A601A
:1008FC00DA607B681B68154A934223D1144B9B69C1
:10090C00134A43F008039361114B9B6903F00803EE
:10091C00FB60FB68C0233B6112237B610323FB61FB
:10092C0007F1100319460B4800F09EFB084BDB69DE
:10093C00074A43F40013D361054BDB6903F400133E
:10094C00BB60BB6800BF2037BD4680BD0054004073
:10095C0000100240000C014080B584B000AF7860FC
:10096C007B681B68B3F1804F13D10C4BDB690B4ACE
:10097C0043F00103D361094BDB6903F00103FB6016
:10098C00FB68002200211C2000F085FA1C2000F0DE
:10099C009EFA00BF1037BD4680BD00BF001002405C
:1009AC0080B58AB000AF786007F1140300221A609A
:1009BC005A609A60DA607B681B68B3F1804F42D151
:1009CC00234B9B69224A43F004039361204B9B69A0
:1009DC0003F004033B613B691D4B9B691C4A43F0CC
:1009EC00080393611A4B9B6903F00803FB60FB68D7
:1009FC004FF400437B610223BB6102233B6207F18E
:100A0C0014031946134800F02FFB08237B610223C3
:100A1C00BB6102233B6207F1140319460E4800F038
:100A2C0023FB0E4B5B687B627B6A23F440737B6217
:100A3C007B6A43F0E0637B627B6A43F480737B6286
:100A4C00064A7B6A536000BF2837BD4680BD00BF95
:100A5C000010024000080140000C01400000014061
:100A6C0080B588B000AF786007F1100300221A60DF
:100A7C005A609A60DA607B681B681F4A934237D1D0
:100A8C001E4BDB691D4A43F40033D3611B4BDB69FE
:100A9C0003F40033FB60FB68184B9B69174A43F067
:100AAC0004039361154B9B6903F00403BB60BB68A3
:100ABC0004233B6102237B610323FB6107F11003D9
:100ACC0019460F4800F0D0FA08233B6100237B61E4
:100ADC000023BB6107F110031946094800F0C4FA62
:100AEC0000220021262000F0D6F9262000F0EFF994
:100AFC0000BF2037BD4680BD0044004000100240BE
:100B0C000008014080B400AF00BFFDE780B400AF27
:100B1C0000BFFDE780B400AF00BFFDE780B400AFBD
:100B2C0000BFFDE780B400AF00BFFDE780B400AFAD
:100B3C0000BFBD4680BC704780B400AF00BFBD464F
:100B4C0080BC704780B400AF00BFBD4680BC70470E
:100B5C0080B500AF00F088F800BF80BD80B500AF55
:100B6C00024801F02BFE00BF80BD00BF8C000020AE
:100B7C0080B500AF024802F0CFFC00BF80BD00BFC3
:100B8C00D400002080B400AF00BFBD4680BC7047CD
:100B9C00FFF7F8FF0B480C490C4A002302E0D4582D
:100BAC00C4500433C4188C42F9D3094A094C0023AD
:100BBC0001E013600432A242FBD303F001FAFFF709
:100BCC0049FC7047000000200C000020F840000891
:100BDC000C00002020010020FEE7000080B500AFD3
:100BEC00084B1B68074A43F010031360032000F006
:100BFC0047F90F2000F008F8FFF73EFE00231846D7
:100C0C0080BD00BF0020024080B582B000AF78608C
:100C1C00124B1A68124B1B7819464FF47A73B3FBBC
:100C2C00F1F3B2FBF3F3184600F05FF90346002B27
:100C3C0001D001230EE07B680F2B0AD800227968C3
:100C4C004FF0FF3000F027F9064A7B681360002351
:100C5C0000E0012318460837BD4680BD0000002087
:100C6C00080000200400002080B400AF054B1B7866
:100C7C001A46054B1B681344034A136000BFBD465C
:100C8C0080BC7047080000201C01002080B400AF1D
:100C9C00024B1B681846BD4680BC70471C010020E7
:100CAC0080B584B000AF7860FFF7F0FFB8607B6868
:100CBC00FB60FB68B3F1FF3F05D00A4B1B781A466B
:100CCC00FB681344FB6000BFFFF7E0FF0246BB6804
:100CDC00D31AFA689A42F7D800BF00BF1037BD4646
:100CEC0080BD00BF0800002080B485B000AF7860E4
:100CFC007B6803F00703FB600C4BDB68BB60BA68D6
:100D0C004FF6FF031340BB60FB681A02BB6813432A
:100D1C0043F0BF6343F40033BB60044ABB68D36049
:100D2C0000BF1437BD4680BC704700BF00ED00E02B
:100D3C0080B400AF044BDB681B0A03F007031846B2
:100D4C00BD4680BC704700BF00ED00E080B483B0AE
:100D5C0000AF0346FB7197F90730002B0BDBFB79D7
:100D6C0003F01F02064997F907305B09012000FACE
:100D7C0002F241F8232000BF0C37BD4680BC7047FF
:100D8C0000E100E080B483B000AF03463960FB7132
:100D9C0097F90730002B0ADB3B68DAB20C4997F95C
:100DAC0007301201D2B20B4483F800230AE03B68EF
:100DBC00DAB20849FB7903F00F03043B1201D2B2FB
:100DCC000B441A7600BF0C37BD4680BC704700BF81
:100DDC0000E100E000ED00E080B489B000AFF86005
:100DEC00B9607A60FB6803F00703FB61FB69C3F130
:100DFC000703042B28BF0423BB61FB690433062BB8
:100E0C0002D9FB69033B00E000237B614FF0FF320A
:100E1C00BB6902FA03F3DA43BB681A407B699A4058
:100E2C004FF0FF317B6901FA03F3D9437B680B4028
:100E3C00134318462437BD4680BC704780B582B03A
:100E4C0000AF78607B68013BB3F1807F01D3012355
:100E5C000FE00A4A7B68013B53600F214FF0FF30D3
:100E6C00FFF790FF054B00229A60044B07221A6093
:100E7C00002318460837BD4680BD00BF10E000E0D7
:100E8C0080B582B000AF78607868FFF72DFF00BFA7
:100E9C000837BD4680BD80B586B000AF0346B9604B
:100EAC007A60FB7300237B61FFF742FF78617A68FD
:100EBC00B9687869FFF790FF024697F90F30114631
:100ECC001846FFF75FFF00BF1837BD4680BD80B5E1
:100EDC0082B000AF0346FB7197F907301846FFF755
:100EEC0035FF00BF0837BD4680BD80B582B000AF6E
:100EFC0078607868FFF7A2FF034618460837BD46AE
:100F0C0080BD80B485B000AF78600023FB737B6834
:100F1C0093F82130DBB2022B08D07B6804229A6351
:100F2C007B68002283F82020012320E07B681B686B
:100F3C001A687B681B6822F00E021A607B681B68BB
:100F4C001A687B681B6822F001021A607B681A6CB5
:100F5C007B68DB6B012101FA02F25A607B6801228B
:100F6C0083F821207B68002283F82020FB7B184625
:100F7C001437BD4680BC704780B584B000AF786034
:100F8C000023FB737B6893F82130DBB2022B05D076
:100F9C007B6804229A630123FB7351E07B681B6816
:100FAC001A687B681B6822F00E021A607B681B684B
:100FBC001A687B681B6822F001021A607B681B6848
:100FCC00224A934229D07B681B68214A934222D043
:100FDC007B681B681F4A93421AD07B681B681E4AA9
:100FEC00934212D07B681B681C4A93420AD07B68E0
:100FFC001B681B4A934202D14FF480130EE04FF052
:10100C0080730BE04FF4803308E04FF4805305E01D
:10101C004FF4807302E0102300E00123114A536067
:10102C007B68012283F821207B68002283F8202032
:10103C007B685B6B002B03D07B685B6B7868984795
:10104C00FB7B18461037BD4680BD00BF0800024030
:10105C001C00024030000240440002405800024094
:10106C006C0002400000024080B48BB000AF78608E
:10107C00396000237B6200233B6269E101227B6AB9
:10108C0002FA03F3FB613B681B68FA691340BB610E
:10109C00BA69FB699A4240F058813B685B689A4A8E
:1010AC0093425ED0984A934275D8984A934258D04E
:1010BC00964A93426FD8964A934252D0944A93429E
:1010CC0069D8944A93424CD0924A934263D8924A3C
:1010DC00934246D0904A93425DD8122B2AD8122BB9
:1010EC0059D801A252F823F06F11000849110008D9
:1010FC005B1100089D110008A3110008A311000842
:10110C00A3110008A3110008A3110008A3110008E3
:10111C00A3110008A3110008A3110008A3110008D3
:10112C00A3110008A3110008A31100085111000815
:10113C0065110008794A934213D02CE03B68DB68B8
:10114C003B6229E03B68DB6804333B6224E03B688C
:10115C00DB6808333B621FE03B68DB680C333B62A7
:10116C001AE03B689B68002B02D104233B6213E01E
:10117C003B689B68012B05D108233B627B68FA69AD
:10118C001A6109E008233B627B68FA695A6103E043
:10119C0000233B6200E000BFBB69FF2B01D87B68DA
:1011AC0001E07B6804337B61BB69FF2B02D87B6A4F
:1011BC009B0002E07B6A083B9B003B617B691A68E1
:1011CC000F213B6901FA03F3DB431A40396A3B698F
:1011DC0001FA03F31A437B691A603B685B6803F0FE
:1011EC008053002B00F0B1804D4B9B694C4A43F06F
:1011FC00010393614A4B9B6903F00103BB60BB681D
:10120C00484A7B6A9B08023352F82330FB607B6AA6
:10121C0003F003039B000F2202FA03F3DB43FA688B
:10122C001340FB607B68404A934213D07B683F4A73
:10123C0093420DD07B683E4A934207D07B683D4A6F
:10124C00934201D1032306E0042304E0022302E0CD
:10125C00012300E000237A6A02F00302920093401B
:10126C00FA681343FB602F497B6A9B080233FA68C8
:10127C0041F823203B685B6803F48013002B06D0F5
:10128C002D4B9A682C49BB6913438B6006E02A4BA3
:10129C009A68BB69DB43284913408B603B685B68E9
:1012AC0003F40013002B06D0234BDA682249BB69E8
:1012BC001343CB6006E0204BDA68BB69DB431E4965
:1012CC001340CB603B685B6803F40033002B06D003
:1012DC00194B5A681849BB6913434B6006E0164B0F
:1012EC005A68BB69DB43144913404B603B685B682D
:1012FC0003F48033002B21D00F4B1A680E49BB69C5
:10130C0013430B6021E000BF0000321000003110CD
:10131C00000022100000211000001210000011101B
:10132C00001002400000014000080140000C014088
:10133C000010014000140140000401400B4B1A68DE
:10134C00BB69DB43094913400B607B6A01337B6249
:10135C003B681A687B6A22FA03F3002B7FF48EAE8B
:10136C0000BF00BF2C37BD4680BC70470004014055
:10137C0080B485B000AF78600B467B807B689A6840
:10138C007B881340002B02D00123FB7301E0002368
:10139C00FB73FB7B18461437BD4680BC704780B48A
:1013AC0083B000AF78600B467B8013467B707B78F4
:1013BC00002B03D07A887B681A6103E07B881A04BF
:1013CC007B681A6100BF0C37BD4680BC70470000BB
:1013DC0080B584B000AF78607B68002B01D101230D
:1013EC002BE17B6893F83D30DBB2002B06D17B6898
:1013FC00002283F83C207868FFF770FA7B6824227F
:10140C0083F83D207B681B681A687B681B6822F098
:10141C0001021A607B681B681A687B681B6842F4BF
:10142C0000421A607B681B681A687B681B6822F490
:10143C0000421A6001F032F8F8607B685B68814A00
:10144C00934207D8FB68804A934294BF0123002340
:10145C00DBB206E0FB687D4A934294BF0123002374
:10146C00DBB2002B01D00123E7E0FB68784AA2FB3A
:10147C0003239B0CBB607B681B685B6823F03F01FC
:10148C007B681B68BA680A435A607B681B681B6AD6
:10149C0023F03F017B685B686A4A934202D8BB68C1
:1014AC00013309E0BB684FF4967202FB03F3694AFF
:1014BC00A2FB03239B0901337A6812680B43136266
:1014CC007B681B68DB6923F44F4222F0FF027B68C8
:1014DC005B685C498B4219D8FB68591E7B685B685A
:1014EC005B00B1FBF3F3591C40F6FC730B40002B73
:1014FC000AD0FB68591E7B685B685B00B1FBF3F399
:10150C000133C3F30B0351E004234FE07B689B686A
:10151C00002B11D1FB68581E7B6859680B465B0089
:10152C000B44B0FBF3F30133C3F30B03002B0CBFE1
:10153C0001230023DBB212E0FB68581E7B6859685C
:10154C000B469B000B4499000B44B0FBF3F30133A7
:10155C00C3F30B03002B0CBF01230023DBB2002BC6
:10156C0001D0012322E07B689B68002B0ED1FB6825
:10157C00581E7B6859680B465B000B44B0FBF3F3B9
:10158C000133C3F30B0343F400430FE0FB68581E15
:10159C007B6859680B469B000B4499000B44B0FBCD
:1015AC00F3F30133C3F30B0343F440437968096845
:1015BC001343CB617B681B681B6823F0C0017B68FD
:1015CC00DA697B681B6A1A437B681B680A431A60DA
:1015DC007B681B689B6823F4034323F0FF037A6842
:1015EC0011697A68D26811437A6812680B43936068
:1015FC007B681B68DB6823F0FF017B685A697B689A
:10160C009B691A437B681B680A43DA607B681B681A
:10161C001A687B681B6842F001021A607B68002222
:10162C001A647B68202283F83D207B6800221A63B1
:10163C007B68002283F83E20002318461037BD46F5
:10164C0080BD00BFA08601007F841E00FF083D0006
:10165C0083DE1B43D34D621080B588B002AFF860B7
:10166C007A601A460B467B8113463B81FFF70EFBD3
:10167C007861FB6893F83D30DBB2202B40F0E080C2
:10168C007B690093192301227049F86800F064F912
:10169C000346002B01D00223D3E0FB6893F83C30C7
:1016AC00012B01D10223CCE0FB68012283F83C2002
:1016BC00FB681B681B6803F00103012B07D0FB6858
:1016CC001B681A68FB681B6842F001021A60FB6811
:1016DC001B681A68FB681B6822F400621A60FB68BE
:1016EC00212283F83D20FB68102283F83E20FB6802
:1016FC0000221A64FB687A685A62FB683A895A8538
:10170C00FB685B8D9AB2FB681A85FB68504ADA62FB
:10171C0079897B693A6AF86800F09CF80346002BDB
:10172C0001D001238DE000233B61FB681B685B69E2
:10173C003B61FB681B689B693B613B6966E07A69AE
:10174C00396AF86800F022FA0346002B0DD0FB68CA
:10175C001B6C042B07D1FB681B681A68FB681B68A1
:10176C0042F400721A6001236BE0FB685B6A1A7822
:10177C00FB681B681A61FB685B6A5A1CFB685A623F
:10178C00FB685B8D9BB2013B9AB2FB685A85FB6888
:10179C001B8D013B9AB2FB681A85FB681B685B6961
:1017AC0003F00403042B1BD1FB681B8D002B17D0FB
:1017BC00FB685B6A1A78FB681B681A61FB685B6ADA
:1017CC005A1CFB685A62FB685B8D9BB2013B9AB258
:1017DC00FB685A85FB681B8D013B9AB2FB681A8526
:1017EC007A69396AF86800F019FA0346002B0DD0B3
:1017FC00FB681B6C042B07D1FB681B681A68FB6821
:10180C001B6842F400721A6001231AE0FB681B8DFE
:10181C00002B94D1FB681B681A68FB681B6842F4A8
:10182C0000721A60FB68202283F83D20FB680022BE
:10183C0083F83E20FB68002283F83C20002300E064
:10184C00022318461837BD4680BD00BF02001000A9
:10185C000000FFFF80B588B002AFF8607A603B6093
:10186C000B467B81FB68DB6A7B617B69082B06D0AE
:10187C007B69012B03D07B6913F5803F08D1FB6892
:10188C001B681A68FB681B6842F480721A600BE0D4
:10189C00FB681B6B122B07D1FB681B681A68FB6873
:1018AC001B6842F480721A603B6800937B680022CC
:1018BC004FF00111F86800F04FF80346002B0DD0E3
:1018CC00FB681B681B6803F48073B3F5807F03D13E
:1018DC00FB684FF400721A64032335E0FB681B6944
:1018EC00B3F5804F08D17B89DBB21A46FB681B68C5
:1018FC0002F0FE021A611BE07B89DB11DBB203F004
:10190C000603DBB263F00F03DAB2FB681B681A61E3
:10191C003B687A680E49F86800F098F80346002B8B
:10192C0001D0012310E07B89DAB2FB681B681A61D5
:10193C003B687A680749F86800F088F80346002B82
:10194C0001D0012300E0002318461837BD4680BDA6
:10195C00080001000200010080B584B000AFF860FF
:10196C00B9603B601346FB7148E03B68B3F1FF3F45
:10197C0044D0FFF78BF90246BB69D31A3A689A42F6
:10198C0002D33B68002B39D1BB681B0CDBB2012B9B
:10199C000DD1FB681B685B69DA43BB6813409BB2D3
:1019AC00002B0CBF01230023DBB21A460CE0FB68B2
:1019BC001B689B69DA43BB6813409BB2002B0CBFBE
:1019CC0001230023DBB21A46FB799A4216D1FB683D
:1019DC0000221A63FB68202283F83D20FB6800225A
:1019EC0083F83E20FB681B6C43F02002FB681A64F2
:1019FC00FB68002283F83C20012323E0BB681B0C0E
:101A0C00DBB2012B0DD1FB681B685B69DA43BB6849
:101A1C0013409BB2002B0CBF01230023DBB21A46F0
:101A2C000CE0FB681B689B69DA43BB6813409BB2F4
:101A3C00002B0CBF01230023DBB21A46FB799A4220
:101A4C0093D0002318461037BD4680BD80B584B0B6
:101A5C0000AFF860B9607A603B6071E0FB681B68AE
:101A6C005B6903F48063B3F5806F23D1FB681B685B
:101A7C001A68FB681B6842F400721A60FB681B68EA
:101A8C006FF480625A61FB6800221A63FB682022A3
:101A9C0083F83D20FB68002283F83E20FB681B6C1A
:101AAC0043F00402FB681A64FB68002283F83C20B4
:101ABC00012367E07B68B3F1FF3F41D0FFF7E6F805
:101ACC0002463B68D31A7A689A4202D37B68002B91
:101ADC0036D1BB681B0CDBB2012B0CD1FB681B682D
:101AEC005B69DA43BB6813409BB2002B14BF012324
:101AFC000023DBB20BE0FB681B689B69DA43BB6815
:101B0C0013409BB2002B14BF01230023DBB2002B2C
:101B1C0016D0FB6800221A63FB68202283F83D2054
:101B2C00FB68002283F83E20FB681B6C43F020020C
:101B3C00FB681A64FB68002283F83C20012321E037
:101B4C00BB681B0CDBB2012B0CD1FB681B685B69FF
:101B5C00DA43BB6813409BB2002B14BF0123002354
:101B6C00DBB20BE0FB681B689B69DA43BB68134074
:101B7C009BB2002B14BF01230023DBB2002B7FF49C
:101B8C006DAF002318461037BD4680BD80B584B0BC
:101B9C0000AFF860B9607A6034E0F86800F086F85D
:101BAC000346002B01D0012334E0BB68B3F1FF3FA7
:101BBC0028D0FFF76BF802467B68D31ABA689A42B2
:101BCC0002D3BB68002B1DD1FB681B685B6903F05B
:101BDC008003802B16D0FB6800221A63FB6820223E
:101BEC0083F83D20FB68002283F83E20FB681B6CC9
:101BFC0043F02002FB681A64FB68002283F83C2047
:101C0C00012307E0FB681B685B6903F08003802BF2
:101C1C00C3D1002318461037BD4680BD80B584B0B3
:101C2C0000AFF860B9607A6034E0F86800F03EF814
:101C3C000346002B01D0012334E0BB68B3F1FF3F16
:101C4C0028D0FFF723F802467B68D31ABA689A4269
:101C5C0002D3BB68002B1DD1FB681B685B6903F0CA
:101C6C000403042B16D0FB6800221A63FB682022A5
:101C7C0083F83D20FB68002283F83E20FB681B6C38
:101C8C0043F02002FB681A64FB68002283F83C20B6
:101C9C00012307E0FB681B685B6903F00403042B5A
:101CAC00C3D1002318461037BD4680BD80B483B025
:101CBC0000AF78607B681B685B6903F48063B3F5E5
:101CCC00806F1BD17B681B686FF480625A617B68E4
:101CDC0000221A637B68202283F83D207B68002257
:101CEC0083F83E207B681B6C43F004027B681A640B
:101CFC007B68002283F83C20012300E00023184677
:101D0C000C37BD4680BC704780B586B000AF78609C
:101D1C007B68002B01D1012372E27B681B6803F006
:101D2C000103002B00F08780924B5B6803F00C03DF
:101D3C00042B0CD08F4B5B6803F00C03082B12D1D7
:101D4C008C4B5B6803F48033B3F5803F0BD1894B2C
:101D5C001B6803F40033002B6CD07B685B68002B92
:101D6C0068D101234CE27B685B68B3F5803F06D1F8
:101D7C00804B1B687F4A43F4803313602EE07B68F2
:101D8C005B68002B0CD17B4B1B687A4A23F48033A5
:101D9C001360784B1B68774A23F4802313601DE093
:101DAC007B685B68B3F5A02F0CD1724B1B68714A32
:101DBC0043F4802313606F4B1B686E4A43F48033EB
:101DCC0013600BE06B4B1B686A4A23F4803313607F
:101DDC00684B1B68674A23F4802313607B685B683D
:101DEC00002B13D0FEF752FF386108E0FEF74EFFD0
:101DFC0002463B69D31A642B01D9032300E25D4BE5
:101E0C001B6803F40033002BF0D014E0FEF73EFF08
:101E1C00386108E0FEF73AFF02463B69D31A642B9F
:101E2C0001D90323ECE1534B1B6803F40033002B63
:101E3C00F0D100E000BF7B681B6803F00203002BAD
:101E4C0063D04C4B5B6803F00C03002B0BD0494B5D
:101E5C005B6803F00C03082B1CD1464B5B6803F446
:101E6C008033002B16D1434B1B6803F00203002B6D
:101E7C0005D07B681B69012B01D00123C0E13D4BD0
:101E8C001B6823F0F8027B685B69DB00394913435C
:101E9C000B603AE07B681B69002B20D0364B01228B
:101EAC001A60FEF7F3FE386108E0FEF7EFFE02461B
:101EBC003B69D31A022B01D90323A1E12D4B1B68DB
:101ECC0003F00203002BF0D02A4B1B6823F0F8021E
:101EDC007B685B69DB00274913430B6015E0264BDD
:101EEC0000221A60FEF7D2FE386108E0FEF7CEFE43
:101EFC0002463B69D31A022B01D9032380E11D4B07
:101F0C001B6803F00203002BF0D17B681B6803F005
:101F1C000803002B3AD07B689B69002B19D0174B18
:101F2C0001221A60FEF7B2FE386108E0FEF7AEFE41
:101F3C0002463B69D31A022B01D9032360E10D4BF6
:101F4C005B6A03F00203002BF0D0012000F0CEFA04
:101F5C001CE00A4B00221A60FEF798FE38610FE075
:101F6C00FEF794FE02463B69D31A022B08D90323D1
:101F7C0046E100BF00100240000042428004424291
:101F8C00924B5B6A03F00203002BE9D17B681B6860
:101F9C0003F00403002B00F0A6800023FB758B4B91
:101FAC00DB6903F08053002B0DD1884BDB69874A2A
:101FBC0043F08053D361854BDB6903F08053BB60E6
:101FCC00BB680123FB75824B1B6803F48073002BE9
:101FDC0018D17F4B1B687E4A43F480731360FEF765
:101FEC0055FE386108E0FEF751FE02463B69D31AF4
:101FFC00642B01D9032303E1754B1B6803F4807335
:10200C00002BF0D07B68DB68012B06D16F4B1B6A71
:10201C006E4A43F0010313622DE07B68DB68002BF2
:10202C000CD16A4B1B6A694A23F001031362674B9C
:10203C001B6A664A23F0040313621CE07B68DB68AE
:10204C00052B0CD1614B1B6A604A43F004031362ED
:10205C005E4B1B6A5D4A43F0010313620BE05B4B62
:10206C001B6A5A4A23F001031362584B1B6A574AE6
:10207C0023F0040313627B68DB68002B15D0FEF79A
:10208C0005FE38610AE0FEF701FE02463B69D31AF1
:10209C0041F28832934201D90323B1E04B4B1B6AC6
:1020AC0003F00203002BEED014E0FEF7EFFD3861D5
:1020BC000AE0FEF7EBFD02463B69D31A41F2883287
:1020CC00934201D903239BE0404B1B6A03F00203AC
:1020DC00002BEED1FB7D012B05D13C4BDB693B4A40
:1020EC0023F08053D3617B68DB69002B00F0878081
:1020FC00364B5B6803F00C03082B61D07B68DB6903
:10210C00022B46D1334B00221A60FEF7BFFD38611B
:10211C0008E0FEF7BBFD02463B69D31A022B01D93E
:10212C0003236DE0294B1B6803F00073002BF0D1E7
:10213C007B681B6AB3F5803F08D1244B5B6823F4A2
:10214C0000327B689B68214913434B601F4B5B68D3
:10215C0023F474127B68196A7B685B6A0B431B4916
:10216C0013434B601B4B01221A60FEF78FFD386145
:10217C0008E0FEF78BFD02463B69D31A022B01D90E
:10218C0003233DE0114B1B6803F00073002BF0D0D0
:10219C0035E0104B00221A60FEF778FD386108E03C
:1021AC00FEF774FD02463B69D31A022B01D90323B7
:1021BC0026E0064B1B6803F00073002BF0D11EE0E9
:1021CC007B68DB69012B07D1012319E00010024069
:1021DC0000700040600042420B4B5B68FB60FB6888
:1021EC0003F480327B681B6A9A4206D1FB6803F4C5
:1021FC0070127B685B6A9A4201D0012300E00023D5
:10220C0018461837BD4680BD0010024080B584B01A
:10221C0000AF786039607B68002B01D10123D0E0DE
:10222C006A4B1B6803F007033A689A4210D9674B54
:10223C001B6823F0070265493B6813430B60634B33
:10224C001B6803F007033A689A4201D00123B8E0F7
:10225C007B681B6803F00203002B20D07B681B6893
:10226C0003F00403002B05D0594B5B68584A43F428
:10227C00E06353607B681B6803F00803002B05D0F8
:10228C00534B5B68524A43F460535360504B5B684A
:10229C0023F0F0027B689B684D4913434B607B68CD
:1022AC001B6803F00103002B40D07B685B68012B9B
:1022BC0007D1474B1B6803F40033002B15D10123C6
:1022CC007FE07B685B68022B07D1414B1B6803F0F6
:1022DC000073002B09D1012373E03D4B1B6803F005
:1022EC000203002B01D101236BE0394B5B6823F017
:1022FC0003027B685B68364913434B60FEF7C6FCF0
:10230C00F8600AE0FEF7C2FC0246FB68D31A41F201
:10231C008832934201D9032353E02D4B5B6803F0C1
:10232C000C027B685B689B009A42EBD1274B1B68C5
:10233C0003F007033A689A4210D2244B1B6823F02F
:10234C00070222493B6813430B60204B1B6803F0C8
:10235C0007033A689A4201D0012332E07B681B687C
:10236C0003F00403002B08D0194B5B6823F4E062E4
:10237C007B68DB68164913434B607B681B6803F072
:10238C000803002B09D0124B5B6823F460527B6866
:10239C001B69DB000E4913434B6000F021F8024629
:1023AC000B4B5B681B0903F00F030A49CB5C22FA49
:1023BC0003F3094A1360094B1B681846FEF724FC0B
:1023CC00002318461037BD4680BD00BF00200240D8
:1023DC0000100240C440000800000020040000204F
:1023EC0080B487B000AF0023FB600023BB600023E8
:1023FC007B6100237B6000233B611E4B5B68FB60B1
:10240C00FB6803F00C03042B02D0082B03D027E04D
:10241C00194B3B6127E0FB689B0C03F00F03174A39
:10242C00D35C7B60FB6803F48033002B10D0114B22
:10243C005B685B0C03F00103114AD35CBB607B68E7
:10244C000D4A03FB02F2BB68B2FBF3F37B6104E0C1
:10245C007B680C4A02FB03F37B617B693B6102E006
:10246C00054B3B6100BF3B6918461C37BD4680BC21
:10247C00704700BF0010024000127A00DC400008D8
:10248C00EC40000800093D0080B400AF024B1B6813
:10249C001846BD4680BC70470000002080B500AFD8
:1024AC00FFF7F2FF0246054B5B681B0A03F00703BC
:1024BC000349CB5C22FA03F3184680BD001002409E
:1024CC00D440000880B500AFFFF7DEFF0246054B95
:1024DC005B68DB0A03F007030349CB5C22FA03F3C6
:1024EC00184680BD00100240D440000880B485B06E
:1024FC0000AF78600A4B1B680A4AA2FB03235B0AF5
:10250C007A6802FB03F3FB6000BFFB685A1EFA609B
:10251C00002BF9D100BF00BF1437BD4680BC7047FB
:10252C0000000020D34D621080B582B000AF7860FF
:10253C007B68002B01D1012341E07B6893F83D308F
:10254C00DBB2002B06D17B68002283F83C20786834
:10255C00FEF702FA7B68022283F83D207B681A683A
:10256C007B6804331946104600F0CEFB7B680122D1
:10257C0083F846207B68012283F83E207B68012289
:10258C0083F83F207B68012283F840207B6801227E
:10259C0083F841207B68012283F842207B6801226A
:1025AC0083F843207B68012283F844207B68012256
:1025BC0083F845207B68012283F83D2000231846D0
:1025CC000837BD4680BD80B582B000AF78607B68AF
:1025DC00002B01D1012341E07B6893F83D30DBB245
:1025EC00002B06D17B68002283F83C20786800F031
:1025FC0039F87B68022283F83D207B681A687B6877
:10260C0004331946104600F07FFB7B68012283F8E7
:10261C0046207B68012283F83E207B68012283F8E8
:10262C003F207B68012283F840207B68012283F8DD
:10263C0041207B68012283F842207B68012283F8C9
:10264C0043207B68012283F844207B68012283F8B5
:10265C0045207B68012283F83D200023184608376B
:10266C00BD4680BD80B483B000AF786000BF0C372E
:10267C00BD4680BC7047000080B584B000AF786068
:10268C0039603B68002B09D17B6893F83E30DBB294
:10269C00012B14BF01230023DBB222E03B68042B87
:1026AC0009D17B6893F83F30DBB2012B14BF0123B7
:1026BC000023DBB215E03B68082B09D17B6893F84B
:1026CC004030DBB2012B14BF01230023DBB208E046
:1026DC007B6893F84130DBB2012B14BF012300233C
:1026EC00DBB2002B01D001235EE03B68002B04D150
:1026FC007B68022283F83E2013E03B68042B04D154
:10270C007B68022283F83F200BE03B68082B04D146
:10271C007B68022283F8402003E07B68022283F866
:10272C0041207B681B6801223968184600F078FD4F
:10273C007B681B681E4A934207D17B681B685A6CE6
:10274C007B681B6842F400425A647B681B68184A19
:10275C0093420ED07B681B68B3F1804F09D07B6825
:10276C001B68144A934204D07B681B68124A93423C
:10277C0011D17B681B689B6803F00703FB60FB6847
:10278C00062B10D07B681B681A687B681B6842F0AC
:10279C0001021A6007E07B681B681A687B681B687B
:1027AC0042F001021A60002318461037BD4680BD66
:1027BC00002C0140000400400008004080B584B0AB
:1027CC0000AF78607B681B68DB68FB607B681B680C
:1027DC001B69BB60BB6803F00203002B20D0FB68B5
:1027EC0003F00203002B1BD07B681B686FF0020206
:1027FC001A617B6801221A777B681B689B6903F05E
:10280C000303002B03D0786800F063FA05E07868C6
:10281C0000F056FA786800F065FA7B6800221A77A7
:10282C00BB6803F00403002B20D0FB6803F0040307
:10283C00002B1BD07B681B686FF004021A617B684D
:10284C0002221A777B681B689B6903F44073002B88
:10285C0003D0786800F03DFA05E0786800F030FAB3
:10286C00786800F03FFA7B6800221A77BB6803F0A7
:10287C000803002B20D0FB6803F00803002B1BD0AF
:10288C007B681B686FF008021A617B6804221A7758
:10289C007B681B68DB6903F00303002B03D07868AB
:1028AC0000F017FA05E0786800F00AFA786800F092
:1028BC0019FA7B6800221A77BB6803F01003002B0F
:1028CC0020D0FB6803F01003002B1BD07B681B6827
:1028DC006FF010021A617B6808221A777B681B68FC
:1028EC00DB6903F44073002B03D0786800F0F1F936
:1028FC0005E0786800F0E4F9786800F0F3F97B689B
:10290C0000221A77BB6803F00103002B0CD0FB6884
:10291C0003F00103002B07D07B681B686FF00102EA
:10292C001A61786800F0C3F9BB6803F08003002BD0
:10293C000CD0FB6803F08003002B07D07B681B686E
:10294C006FF080021A61786800F0F5FCBB6803F048
:10295C004003002B0CD0FB6803F04003002B07D086
:10296C007B681B686FF040021A61786800F0C3F94D
:10297C00BB6803F02003002B0CD0FB6803F0200392
:10298C00002B07D07B681B686FF020021A617868F7
:10299C0000F0C8FC00BF1037BD4680BD80B586B0C6
:1029AC0000AFF860B9607A600023FB75FB6893F8A0
:1029BC003C30012B01D10223AEE0FB68012283F8ED
:1029CC003C207B680C2B00F29F8001A252F823F074
:1029DC00112A0008152B0008152B0008152B0008D0
:1029EC00512A0008152B0008152B0008152B000880
:1029FC00932A0008152B0008152B0008152B00082E
:102A0C00D32A0008FB681B68B968184600F0EAF97D
:102A1C00FB681B689A69FB681B6842F008029A61A4
:102A2C00FB681B689A69FB681B6822F004029A61B8
:102A3C00FB681B689969BB681A69FB681B680A43C9
:102A4C009A6164E0FB681B68B968184600F030FABC
:102A5C00FB681B689A69FB681B6842F400629A6108
:102A6C00FB681B689A69FB681B6822F480629A6198
:102A7C00FB681B689969BB681B691A02FB681B68B9
:102A8C000A439A6143E0FB681B68B968184600F07A
:102A9C0079FAFB681B68DA69FB681B6842F008026C
:102AAC00DA61FB681B68DA69FB681B6822F00402B8
:102ABC00DA61FB681B68D969BB681A69FB681B681B
:102ACC000A43DA6123E0FB681B68B968184600F01A
:102ADC00C3FAFB681B68DA69FB681B6842F4006286
:102AEC00DA61FB681B68DA69FB681B6822F4806298
:102AFC00DA61FB681B68D969BB681B691A02FB6841
:102B0C001B680A43DA6102E00123FB7500BFFB6816
:102B1C00002283F83C20FB7D18461837BD4680BD4B
:102B2C0080B584B000AF786039600023FB737B689C
:102B3C0093F83C30012B01D10223B4E07B680122D5
:102B4C0083F83C207B68022283F83D207B681B685D
:102B5C009B68BB60BB6823F07703BB60BB6823F446
:102B6C007F43BB607B681B68BA689A603B681B68D4
:102B7C00B3F5005F3ED0B3F5005F00F28780B3F58C
:102B8C00805F00F08680B3F5805F7FD8702B1AD001
:102B9C00702B7BD8602B50D0602B77D8502B3CD02F
:102BAC00502B73D8402B58D0402B6FD8302B64D07F
:102BBC00302B6BD8202B60D0202B67D8002B5CD00F
:102BCC00102B5AD062E07B6818683B6899683B68A8
:102BDC005A683B68DB6800F004FB7B681B689B68E9
:102BEC00BB60BB6843F07703BB607B681B68BA684B
:102BFC009A604FE07B6818683B6899683B685A6834
:102C0C003B68DB6800F0EDFA7B681B689A687B68B0
:102C1C001B6842F480429A603CE07B6818683B6811
:102C2C0059683B68DB681A4600F064FA7B681B68DD
:102C3C005021184600F0BBFA2CE07B6818683B6802
:102C4C0059683B68DB681A4600F082FA7B681B689F
:102C5C006021184600F0ABFA1CE07B6818683B68F2
:102C6C0059683B68DB681A4600F044FA7B681B68BD
:102C7C004021184600F09BFA0CE07B681A683B6810
:102C8C001B681946104600F092FA03E00123FB730F
:102C9C0000E000BF7B68012283F83D207B680022A6
:102CAC0083F83C20FB7B18461037BD4680BD80B4B2
:102CBC0083B000AF786000BF0C37BD4680BC704756
:102CCC0080B483B000AF786000BF0C37BD4680BCC9
:102CDC00704780B483B000AF786000BF0C37BD463E
:102CEC0080BC704780B483B000AF786000BF0C37F5
:102CFC00BD4680BC704780B483B000AF786000BF25
:102D0C000C37BD4680BC704780B485B000AF78608E
:102D1C0039607B681B68FB607B682F4A93420BD041
:102D2C007B68B3F1804F07D07B682C4A934203D069
:102D3C007B682B4A934208D1FB6823F07003FB603D
:102D4C003B685B68FA681343FB607B68224A9342DA
:102D5C000BD07B68B3F1804F07D07B681F4A93423E
:102D6C0003D07B681E4A934208D1FB6823F440735E
:102D7C00FB603B68DB68FA681343FB60FB6823F07D
:102D8C0080023B685B691343FB607B68FA681A60DE
:102D9C003B689A687B68DA623B681A687B689A625F
:102DAC007B680D4A934203D13B681A697B681A63AE
:102DBC007B6801225A617B681B6903F00103002BBD
:102DCC0005D07B681B6923F001027B681A6100BF88
:102DDC001437BD4680BC7047002C014000040040F5
:102DEC000008004080B487B000AF786039607B6821
:102DFC001B6A7B617B681B6A23F001027B681A6289
:102E0C007B685B683B617B689B69FB60FB6823F0BC
:102E1C007003FB60FB6823F00303FB603B681B68DB
:102E2C00FA681343FB607B6923F002037B613B6808
:102E3C009B687A6913437B617B681C4A93420CD173
:102E4C007B6923F008037B613B68DB687A69134379
:102E5C007B617B6923F004037B617B68134A93429B
:102E6C0011D13B6923F480733B613B6923F40073FC
:102E7C003B613B685B693A6913433B613B689B6907
:102E8C003A6913433B617B683A695A607B68FA681C
:102E9C009A613B685A687B685A637B687A691A62E4
:102EAC0000BF1C37BD4680BC704700BF002C0140E2
:102EBC0080B487B000AF786039607B681B6A7B6137
:102ECC007B681B6A23F010027B681A627B685B6864
:102EDC003B617B689B69FB60FB6823F4E043FB6010
:102EEC00FB6823F44073FB603B681B681B02FA68A9
:102EFC001343FB607B6923F020037B613B689B6879
:102F0C001B017A6913437B617B681D4A93420DD187
:102F1C007B6923F080037B613B68DB681B017A696A
:102F2C0013437B617B6923F040037B617B68144A0C
:102F3C00934213D13B6923F480633B613B6923F4D7
:102F4C0000633B613B685B699B003A6913433B61DF
:102F5C003B689B699B003A6913433B617B683A6908
:102F6C005A607B68FA689A613B685A687B689A6316
:102F7C007B687A691A6200BF1C37BD4680BC7047FB
:102F8C00002C014080B487B000AF786039607B685A
:102F9C001B6A7B617B681B6A23F480727B681A62F4
:102FAC007B685B683B617B68DB69FB60FB6823F0DB
:102FBC007003FB60FB6823F00303FB603B681B683A
:102FCC00FA681343FB607B6923F400737B613B68F5
:102FDC009B681B027A6913437B617B681D4A934291
:102FEC000DD17B6923F400637B613B68DB681B02BA
:102FFC007A6913437B617B6923F480637B617B6813
:10300C00144A934213D13B6923F480533B613B69CF
:10301C0023F400533B613B685B691B013A69134322
:10302C003B613B689B691B013A6913433B617B68BD
:10303C003A695A607B68FA68DA613B685A687B685F
:10304C00DA637B687A691A6200BF1C37BD4680BCA4
:10305C00704700BF002C014080B487B000AF78608F
:10306C0039607B681B6A3B617B681B6A23F4805266
:10307C007B681A627B685B687B617B68DB69FB60E1
:10308C00FB6823F4E043FB60FB6823F44073FB60B4
:10309C003B681B681B02FA681343FB603B6923F413
:1030AC0000533B613B689B681B033A6913433B61CC
:1030BC007B680F4A934209D17B6923F480437B617F
:1030CC003B685B699B017A6913437B617B687A6916
:1030DC005A607B68FA68DA613B685A687B681A64E4
:1030EC007B683A691A6200BF1C37BD4680BC7047CA
:1030FC00002C014080B487B000AFF860B9607A60F2
:10310C00FB681B6A7B61FB681B6A23F00102FB688E
:10311C001A62FB689B693B613B6923F0F0033B61DE
:10312C007B681B013A6913433B617B6923F00A03FB
:10313C007B617A69BB6813437B61FB683A699A616E
:10314C00FB687A691A6200BF1C37BD4680BC7047A9
:10315C0080B487B000AFF860B9607A60FB681B6A16
:10316C007B61FB681B6A23F01002FB681A62FB6828
:10317C009B693B613B6923F470433B617B681B0398
:10318C003A6913433B617B6923F0A0037B61BB6805
:10319C001B017A6913437B61FB683A699A61FB688E
:1031AC007A691A6200BF1C37BD4680BC704780B478
:1031BC0085B000AF786039607B689B68FB60FB680A
:1031CC0023F07003FB603A68FB68134343F007037A
:1031DC00FB607B68FA689A6000BF1437BD4680BC00
:1031EC00704780B487B000AFF860B9607A603B601C
:1031FC00FB689B687B617B6923F47F437B613B6845
:10320C001A027B681A43BB6813437A6913437B61C8
:10321C00FB687A699A6000BF1C37BD4680BC70475A
:10322C0080B487B000AFF860B9607A60BB6803F017
:10323C001F03012202FA03F37B61FB681A6A7B69A4
:10324C00DB431A40FB681A62FB681A6ABB6803F01E
:10325C001F03796801FA03F31A43FB681A6200BF73
:10326C001C37BD4680BC704780B485B000AF786019
:10327C0039607B6893F83C30012B01D1022346E086
:10328C007B68012283F83C207B68022283F83D2076
:10329C007B681B685B68FB607B681B689B68BB601A
:1032AC00FB6823F07003FB603B681B68FA681343F0
:1032BC00FB607B681B68FA685A607B681B68164A5F
:1032CC0093420ED07B681B68B3F1804F09D07B68AA
:1032DC001B68124A934204D07B681B68104A9342C5
:1032EC000CD1BB6823F08003BB603B685B68BA6899
:1032FC001343BB607B681B68BA689A607B680122C9
:10330C0083F83D207B68002283F83C20002318467C
:10331C001437BD4680BC7047002C014000040040AF
:10332C000008004080B483B000AF786000BF0C3759
:10333C00BD4680BC704780B483B000AF786000BFDE
:10334C000C37BD4680BC704780B582B000AF78604A
:10335C007B68002B01D1012342E07B6893F841305C
:10336C00DBB2002B06D17B68002283F84020786802
:10337C00FDF776FB7B68242283F841207B681B6871
:10338C00DA687B681B6822F40052DA60786800F017
:10339C006FFD7B681B681A697B681B6822F490427E
:1033AC001A617B681B685A697B681B6822F02A02C9
:1033BC005A617B681B68DA687B681B6842F40052B0
:1033CC00DA607B6800225A647B68202283F84120F3
:1033DC007B68202283F842207B6800225A630023FA
:1033EC0018460837BD4680BD80B58AB002AFF8607C
:1033FC00B9603B601346FB8000237B61FB6893F84C
:10340C004230DBB2202B40F08180BB68002B02D015
:10341C00FB88002B01D1012379E0FB6800225A6460
:10342C00FB68222283F84220FB6800221A63FDF716
:10343C002DFC7861FB68FA889A85FB68FA88DA8536
:10344C00FB689B68B3F5805F08D1FB681B69002B98
:10345C0004D10023FB61BB68BB6103E0BB68FB616B
:10346C000023BB6147E03B6800937B69002220216D
:10347C00F86800F009FB0346002B05D0FB682022FE
:10348C0083F84220032342E0FB69002B0CD1FB683C
:10349C001B685B689BB2C3F308039AB2BB691A80C2
:1034AC00BB690233BB611FE0FB689B68B3F5805FAF
:1034BC0007D0FB689B68002B0AD1FB681B69002BAB
:1034CC0006D1FB681B685B68DAB2FB691A7008E00E
:1034DC00FB681B685B68DBB203F07F03DAB2FB6945
:1034EC001A70FB690133FB61FB68DB8D9BB2013BFE
:1034FC009AB2FB68DA85FB68DB8D9BB2002BB2D1EC
:10350C00FB68202283F84220002300E002231846A7
:10351C002037BD4680BD000080B5BAB000AF7860E2
:10352C007B681B681B68C7F8E4307B681B68DB682A
:10353C00C7F8E0307B681B685B69C7F8DC30002398
:10354C00C7F8D8300023C7F8D430D7F8E43003F0EC
:10355C000F03C7F8D830D7F8D830002B0FD1D7F8D5
:10356C00E43003F02003002B09D0D7F8E03003F04F
:10357C002003002B03D0786800F0BCFB5BE2D7F88B
:10358C00D830002B00F0DE80D7F8DC3003F00103DC
:10359C00002B06D1D7F8E03003F49073002B00F029
:1035AC00D180D7F8E43003F00103002B0BD0D7F80F
:1035BC00E03003F48073002B05D07B685B6C43F028
:1035CC0001027B685A64D7F8E43003F00403002B43
:1035DC000BD0D7F8DC3003F00103002B05D07B684F
:1035EC005B6C43F002027B685A64D7F8E43003F05A
:1035FC000203002B0BD0D7F8DC3003F00103002BB7
:10360C0005D07B685B6C43F004027B685A64D7F886
:10361C00E43003F00803002B11D0D7F8E03003F0AE
:10362C002003002B05D1D7F8DC3003F00103002B6D
:10363C0005D07B685B6C43F008027B685A647B683E
:10364C005B6C002B00F0F281D7F8E43003F0200320
:10365C00002B08D0D7F8E03003F02003002B02D069
:10366C00786800F047FB7B681B685B6903F04003DC
:10367C00002B14BF01230023DBB2C7F8D4307B68C6
:10368C005B6C03F00803002B03D1D7F8D430002B6C
:10369C004FD0786800F051FA7B681B685B6903F0C7
:1036AC004003002B41D07B681B681433C7F89C3057
:1036BC00D7F89C3053E8003FC7F89830D7F89830CB
:1036CC0023F04003C7F8D0307B681B681433D7F85D
:1036DC00D020C7F8A820C7F8A430D7F8A410D7F882
:1036EC00A82041E80023C7F8A030D7F8A030002B61
:1036FC00D9D17B68DB6B002B13D07B68DB6B7E4AEC
:10370C005A637B68DB6B1846FDF736FC0346002BCF
:10371C0016D07B68DB6B5B6B7A68D26B1046984774
:10372C000EE0786800F09CF90AE0786800F098F9EF
:10373C0006E0786800F094F97B6800225A6475E121
:10374C0000BF73E17B681B6B012B40F04F81D7F8F6
:10375C00E43003F01003002B00F04881D7F8E03080
:10376C0003F01003002B00F041810023BB607B6849
:10377C001B681B68BB607B681B685B68BB60BB68B5
:10378C007B681B685B6903F04003002B00F0B6807C
:10379C007B68DB6B1B685B68A7F8BE30B7F8BE3084
:1037AC00002B00F045817B689B8DB7F8BE209A42B8
:1037BC0080F03E817B68B7F8BE20DA857B68DB6BD6
:1037CC009B69202B00F088807B681B680C33C7F842
:1037DC008830D7F8883053E8003FC7F88430D7F8E2
:1037EC00843023F48073C7F8B8307B681B680C33C3
:1037FC00D7F8B820C7F89420C7F89030D7F89010B5
:10380C00D7F8942041E80023C7F88C30D7F88C30D7
:10381C00002BD9D17B681B6814337B677B6F53E813
:10382C00003F3B673B6F23F00103C7F8B4307B6864
:10383C001B681433D7F8B420C7F88020FB67F96FE6
:10384C00D7F8802041E80023BB67BB6F002BE1D188
:10385C007B681B6814333B663B6E53E8003FFB658B
:10386C00FB6D23F04003C7F8B0307B681B68143342
:10387C00D7F8B020FA66BB66B96EFA6E41E8002341
:10388C007B667B6E002BE3D17B68202283F8422081
:10389C007B6800221A637B681B680C33FB64FB6C2F
:1038AC0053E8003FBB64BB6C23F01003C7F8AC308B
:1038BC007B681B680C33D7F8AC20BA657B65796DD7
:1038CC00BA6D41E800233B653B6D002BE3D17B686F
:1038DC00DB6B1846FDF715FB7B6802225A637B688D
:1038EC009A8D7B68DB8D9BB2D31A9BB21946786894
:1038FC0000F0BFF89CE000BF0B3C00087B689A8D81
:10390C007B68DB8D9BB2D31AA7F8CE307B68DB8D3E
:10391C009BB2002B00F08E80B7F8CE30002B00F05D
:10392C0089807B681B680C33BB63BB6B53E8003F1F
:10393C007B637B6B23F49073C7F8C8307B681B6880
:10394C000C33D7F8C8207A643B64396C7A6C41E844
:10395C000023FB63FB6B002BE3D17B681B681433E8
:10396C007B627B6A53E8003F3B623B6A23F00103B6
:10397C00C7F8C4307B681B681433D7F8C4203A638B
:10398C00FB62F96A3A6B41E80023BB62BB6A002B0D
:10399C00E3D17B68202283F842207B6800221A63E3
:1039AC007B681B680C333B613B6953E8003FFB6051
:1039BC00FB6823F01003C7F8C0307B681B680C331E
:1039CC00D7F8C020FA61BB61B969FA6941E80023F4
:1039DC007B617B69002BE3D17B6802225A63B7F8C9
:1039EC00CE301946786800F044F823E0D7F8E4307C
:1039FC0003F08003002B09D0D7F8E03003F08003EC
:103A0C00002B03D0786800F00EF914E0D7F8E430FE
:103A1C0003F04003002B0ED0D7F8E03003F0400346
:103A2C00002B08D0786800F04DF904E000BF02E0EC
:103A3C0000BF00E000BFE837BD4680BD80B483B056
:103A4C0000AF786000BF0C37BD4680BC704780B4B7
:103A5C0083B000AF786000BF0C37BD4680BC7047A8
:103A6C0080B483B000AF786000BF0C37BD4680BC1B
:103A7C00704780B483B000AF78600B467B8000BF8A
:103A8C000C37BD4680BC704780B586B000AFF8607F
:103A9C00B9603B601346FB713BE03B6AB3F1FF3FFF
:103AAC0037D0FDF7F3F802463B68D31A3A6A9A42CC
:103ABC0002D33B6A002B01D103233AE0FB681B685D
:103ACC00DB6803F00403002B23D0BB68802B20D0D1
:103ADC00BB68402B1DD0FB681B681B6803F00803F8
:103AEC00082B16D100237B61FB681B681B687B616C
:103AFC00FB681B685B687B617B69F86800F01DF8EC
:103B0C00FB6808225A64FB68002283F840200123DA
:103B1C000FE0FB681B681A68BB681340BA689A42CE
:103B2C000CBF01230023DBB21A46FB799A42B4D0B6
:103B3C00002318461837BD4680BD80B495B000AF41
:103B4C0078607B681B680C337B637B6B53E8003FAE
:103B5C003B633B6B23F49073FB647B681B680C33F7
:103B6C00FA6C3A64FB63F96B3A6C41E80023BB6373
:103B7C00BB6B002BE5D17B681B6814333B623B6A43
:103B8C0053E8003FFB61FB6923F00103BB647B68D6
:103B9C001B681433BA6CFA62BB62B96AFA6A41E800
:103BAC0000237B627B6A002BE5D17B681B6B012BAE
:103BBC0019D17B681B680C33FB60FB6853E8003F32
:103BCC00BB60BB6823F010037B647B681B680C3301
:103BDC007A6CBA617B617969BA6941E800233B610F
:103BEC003B69002BE5D17B68202283F842207B685F
:103BFC0000221A6300BF5437BD4680BC704780B5A5
:103C0C0084B000AF78607B685B6AFB60FB68002265
:103C1C00DA85FB680022DA84F868FFF721FF00BF21
:103C2C001037BD4680BD80B485B000AF78607B682E
:103C3C0093F84130DBB2212B3ED17B689B68B3F506
:103C4C00805F14D17B681B69002B10D17B681B6AC9
:103C5C00FB60FB681B881A467B681B68C2F3080272
:103C6C005A607B681B6A9A1C7B681A6208E07B6846
:103C7C001B6A591C7A6811621A787B681B685A6037
:103C8C007B68DB8C9BB2013B9BB27A681946D18472
:103C9C00002B0FD17B681B68DA687B681B6822F0ED
:103CAC008002DA607B681B68DA687B681B6842F00C
:103CBC004002DA60002300E0022318461437BD46A8
:103CCC0080BC704780B582B000AF78607B681B68A1
:103CDC00DA687B681B6822F04002DA607B6820227D
:103CEC0083F841207868FFF7A9FE002318460837AF
:103CFC00BD4680BD80B58CB000AF78607B6893F812
:103D0C004230DBB2222B40F0AE807B689B68B3F56F
:103D1C00805F17D17B681B69002B13D10023FB62DA
:103D2C007B689B6ABB627B681B685B689BB2C3F356
:103D3C0008039AB2BB6A1A807B689B6A9A1C7B68E0
:103D4C009A6226E07B689B6AFB620023BB627B68FD
:103D5C009B68B3F5805F07D07B689B68002B0AD10A
:103D6C007B681B69002B06D17B681B685B68DAB229
:103D7C00FB6A1A7008E07B681B685B68DBB203F0B7
:103D8C007F03DAB2FB6A1A707B689B6A5A1C7B68E9
:103D9C009A627B68DB8D9BB2013B9BB27A681946B9
:103DAC00D185002B5DD17B681B68DA687B681B684A
:103DBC0022F02002DA607B681B68DA687B681B687B
:103DCC0022F48072DA607B681B685A697B681B6816
:103DDC0022F001025A617B68202283F842207B6822
:103DEC0000225A637B681B6B012B35D17B68002248
:103DFC001A637B681B680C337B617B6953E8003F5B
:103E0C003B613B6923F010037B627B681B680C33BE
:103E1C007A6A3A62FB61F9693A6A41E80023BB614C
:103E2C00BB69002BE5D17B681B681B6803F0100392
:103E3C00102B0AD10023FB607B681B681B68FB609E
:103E4C007B681B685B68FB60FB687B689B8D194615
:103E5C007868FFF70EFE02E07868FFF7F8FD0023A4
:103E6C0002E0002300E0022318463037BD4680BD37
:103E7C0080B584B000AF78607B681B681B6923F445
:103E8C0040517B68DA687B681B680A431A617B685F
:103E9C009A687B681B691A437B685B691343BB6038
:103EAC007B681B68DB6823F4B05323F00C037A683F
:103EBC001268B9680B43D3607B681B685B6923F499
:103ECC0040717B689A697B681B680A435A617B68FE
:103EDC001B682C4A934203D1FEF7F4FAF86002E017
:103EEC00FEF7DCFAF860FA6813469B0013449A005C
:103EFC001A447B685B689B00B2FBF3F3224AA2FB7B
:103F0C0003235B091901FA6813469B0013449A00BA
:103F1C001A447B685B689B00B2FBF3F21A4BA3FB61
:103F2C0002035B09642000FB03F3D31A1B01323339
:103F3C00154AA2FB03235B0903F0F0031944FA684A
:103F4C0013469B0013449A001A447B685B689B00E1
:103F5C00B2FBF3F20C4BA3FB02035B09642000FBE6
:103F6C0003F3D31A1B013233074AA2FB03235B0969
:103F7C0003F00F027B681B680A449A6000BF10377D
:103F8C00BD4680BD003801401F85EB5103460244FD
:103F9C00934200D1704703F8011BF9E710B56AB1E1
:103FAC000139841810F8012B11F8013F9A4203D102
:103FBC00A04201D0002AF5D1D01A10BD1046FCE762
:103FCC0070B500260C4D0D4C641BA410A64209D1F3
:103FDC0000F01AF800260A4D0A4C641BA410A642E5
:103FEC0005D170BD55F8043B98470136EEE755F8FE
:103FFC00043B98470136F2E7F0400008F040000817
:10400C00F0400008F4400008F8B500BFF8BC08BC4C
:10401C009E467047F8B500BFF8BC08BC9E4670477A
:10402C0038363830313838313330313337000000DE
:10403C0041205345485249204B4152474F5355005C
:10404C0038363939303135373530343137000000B6
:10405C0042205345485249204B4152474F5355003B
:10406C0054414E494D53495A204241524B4F440002
:10407C004B6F6E7665796F7220000000416B74692E
:10408C00660000004B4F4E5645594F522044555236
:10409C00445500004241524B4F44204F4B554E5516
:1040AC00594F52004241524B4F44204F4B554E4DAD
:1040BC004144C4B0200000000000000000000000DB
:1040CC0001020304060708090000000001020304B2
:1040DC0002030405060708090A0B0C0D0E0F10103D
:0440EC0001020000CD
:0440F0003101000892
:0440F4000D010008B2
:0C40F80000127A0010000000010000001F
:0400000508000B9D47
:00000001FF
